{"abi":[{"type":"constructor","inputs":[],"stateMutability":"nonpayable"},{"type":"function","name":"getPassword","inputs":[],"outputs":[{"name":"","type":"string","internalType":"string"}],"stateMutability":"view"},{"type":"function","name":"setPassword","inputs":[{"name":"newPassword","type":"string","internalType":"string"}],"outputs":[],"stateMutability":"nonpayable"},{"type":"event","name":"SetNetPassword","inputs":[],"anonymous":false},{"type":"error","name":"PasswordStore__NotOwner","inputs":[]}],"bytecode":{"object":"0x608060405234801561001057600080fd5b50600080546001600160a01b031916331790556103fc806100326000396000f3fe608060405234801561001057600080fd5b50600436106100365760003560e01c8063290bb4531461003b578063cc8e239414610050575b600080fd5b61004e61004936600461017b565b61006e565b005b6100586100a7565b604051610065919061022c565b60405180910390f35b600161007a8282610306565b506040517fe0c0c4369656c0c076d23bc27b02824cebc7bef10cb375fd34334edd4974c85490600090a150565b6000546060906001600160a01b031633146100d557604051630f44287360e41b815260040160405180910390fd5b600180546100e29061027b565b80601f016020809104026020016040519081016040528092919081815260200182805461010e9061027b565b801561015b5780601f106101305761010080835404028352916020019161015b565b820191906000526020600020905b81548152906001019060200180831161013e57829003601f168201915b5050505050905090565b634e487b7160e01b600052604160045260246000fd5b60006020828403121561018d57600080fd5b813567ffffffffffffffff808211156101a557600080fd5b818401915084601f8301126101b957600080fd5b8135818111156101cb576101cb610165565b604051601f8201601f19908116603f011681019083821181831017156101f3576101f3610165565b8160405282815287602084870101111561020c57600080fd5b826020860160208301376000928101602001929092525095945050505050565b60006020808352835180602085015260005b8181101561025a5785810183015185820160400152820161023e565b506000604082860101526040601f19601f8301168501019250505092915050565b600181811c9082168061028f57607f821691505b6020821081036102af57634e487b7160e01b600052602260045260246000fd5b50919050565b601f821115610301576000816000526020600020601f850160051c810160208610156102de5750805b601f850160051c820191505b818110156102fd578281556001016102ea565b5050505b505050565b815167ffffffffffffffff81111561032057610320610165565b6103348161032e845461027b565b846102b5565b602080601f83116001811461036957600084156103515750858301515b600019600386901b1c1916600185901b1785556102fd565b600085815260208120601f198616915b8281101561039857888601518255948401946001909101908401610379565b50858210156103b65787850151600019600388901b60f8161c191681555b5050505050600190811b0190555056fea2646970667358221220f2ba83e45566330854abb762794947d9575de1f84faa6db4204cf69bf2250bc964736f6c63430008180033","linkReferences":{}},"methodIdentifiers":{"getPassword()":"cc8e2394","setPassword(string)":"290bb453"},"id":23}